{
  "_format": "hh-sol-artifact-1",
  "contractName": "MyToken",
  "sourceName": "contracts/MyToken.sol",
  "abi": [
    {
      "inputs": [
        {
          "internalType": "address",
          "name": "_governor",
          "type": "address"
        }
      ],
      "stateMutability": "nonpayable",
      "type": "constructor"
    },
    {
      "anonymous": false,
      "inputs": [
        {
          "indexed": true,
          "internalType": "address",
          "name": "owner",
          "type": "address"
        },
        {
          "indexed": true,
          "internalType": "address",
          "name": "spender",
          "type": "address"
        },
        {
          "indexed": false,
          "internalType": "uint256",
          "name": "value",
          "type": "uint256"
        }
      ],
      "name": "Approval",
      "type": "event"
    },
    {
      "anonymous": false,
      "inputs": [
        {
          "indexed": true,
          "internalType": "address",
          "name": "delegator",
          "type": "address"
        },
        {
          "indexed": true,
          "internalType": "address",
          "name": "fromDelegate",
          "type": "address"
        },
        {
          "indexed": true,
          "internalType": "address",
          "name": "toDelegate",
          "type": "address"
        }
      ],
      "name": "DelegateChanged",
      "type": "event"
    },
    {
      "anonymous": false,
      "inputs": [
        {
          "indexed": true,
          "internalType": "address",
          "name": "delegate",
          "type": "address"
        },
        {
          "indexed": false,
          "internalType": "uint256",
          "name": "previousBalance",
          "type": "uint256"
        },
        {
          "indexed": false,
          "internalType": "uint256",
          "name": "newBalance",
          "type": "uint256"
        }
      ],
      "name": "DelegateVotesChanged",
      "type": "event"
    },
    {
      "anonymous": false,
      "inputs": [
        {
          "indexed": true,
          "internalType": "address",
          "name": "from",
          "type": "address"
        },
        {
          "indexed": true,
          "internalType": "address",
          "name": "to",
          "type": "address"
        },
        {
          "indexed": false,
          "internalType": "uint256",
          "name": "value",
          "type": "uint256"
        }
      ],
      "name": "Transfer",
      "type": "event"
    },
    {
      "inputs": [],
      "name": "DOMAIN_SEPARATOR",
      "outputs": [
        {
          "internalType": "bytes32",
          "name": "",
          "type": "bytes32"
        }
      ],
      "stateMutability": "view",
      "type": "function"
    },
    {
      "inputs": [
        {
          "internalType": "address",
          "name": "owner",
          "type": "address"
        },
        {
          "internalType": "address",
          "name": "spender",
          "type": "address"
        }
      ],
      "name": "allowance",
      "outputs": [
        {
          "internalType": "uint256",
          "name": "",
          "type": "uint256"
        }
      ],
      "stateMutability": "view",
      "type": "function"
    },
    {
      "inputs": [
        {
          "internalType": "address",
          "name": "spender",
          "type": "address"
        },
        {
          "internalType": "uint256",
          "name": "amount",
          "type": "uint256"
        }
      ],
      "name": "approve",
      "outputs": [
        {
          "internalType": "bool",
          "name": "",
          "type": "bool"
        }
      ],
      "stateMutability": "nonpayable",
      "type": "function"
    },
    {
      "inputs": [
        {
          "internalType": "address",
          "name": "account",
          "type": "address"
        }
      ],
      "name": "balanceOf",
      "outputs": [
        {
          "internalType": "uint256",
          "name": "",
          "type": "uint256"
        }
      ],
      "stateMutability": "view",
      "type": "function"
    },
    {
      "inputs": [
        {
          "internalType": "address",
          "name": "account",
          "type": "address"
        },
        {
          "internalType": "uint32",
          "name": "pos",
          "type": "uint32"
        }
      ],
      "name": "checkpoints",
      "outputs": [
        {
          "components": [
            {
              "internalType": "uint32",
              "name": "fromBlock",
              "type": "uint32"
            },
            {
              "internalType": "uint224",
              "name": "votes",
              "type": "uint224"
            }
          ],
          "internalType": "struct ERC20Votes.Checkpoint",
          "name": "",
          "type": "tuple"
        }
      ],
      "stateMutability": "view",
      "type": "function"
    },
    {
      "inputs": [],
      "name": "decimals",
      "outputs": [
        {
          "internalType": "uint8",
          "name": "",
          "type": "uint8"
        }
      ],
      "stateMutability": "view",
      "type": "function"
    },
    {
      "inputs": [
        {
          "internalType": "address",
          "name": "spender",
          "type": "address"
        },
        {
          "internalType": "uint256",
          "name": "subtractedValue",
          "type": "uint256"
        }
      ],
      "name": "decreaseAllowance",
      "outputs": [
        {
          "internalType": "bool",
          "name": "",
          "type": "bool"
        }
      ],
      "stateMutability": "nonpayable",
      "type": "function"
    },
    {
      "inputs": [
        {
          "internalType": "address",
          "name": "delegatee",
          "type": "address"
        }
      ],
      "name": "delegate",
      "outputs": [],
      "stateMutability": "nonpayable",
      "type": "function"
    },
    {
      "inputs": [
        {
          "internalType": "address",
          "name": "delegatee",
          "type": "address"
        },
        {
          "internalType": "uint256",
          "name": "nonce",
          "type": "uint256"
        },
        {
          "internalType": "uint256",
          "name": "expiry",
          "type": "uint256"
        },
        {
          "internalType": "uint8",
          "name": "v",
          "type": "uint8"
        },
        {
          "internalType": "bytes32",
          "name": "r",
          "type": "bytes32"
        },
        {
          "internalType": "bytes32",
          "name": "s",
          "type": "bytes32"
        }
      ],
      "name": "delegateBySig",
      "outputs": [],
      "stateMutability": "nonpayable",
      "type": "function"
    },
    {
      "inputs": [
        {
          "internalType": "address",
          "name": "account",
          "type": "address"
        }
      ],
      "name": "delegates",
      "outputs": [
        {
          "internalType": "address",
          "name": "",
          "type": "address"
        }
      ],
      "stateMutability": "view",
      "type": "function"
    },
    {
      "inputs": [
        {
          "internalType": "uint256",
          "name": "blockNumber",
          "type": "uint256"
        }
      ],
      "name": "getPastTotalSupply",
      "outputs": [
        {
          "internalType": "uint256",
          "name": "",
          "type": "uint256"
        }
      ],
      "stateMutability": "view",
      "type": "function"
    },
    {
      "inputs": [
        {
          "internalType": "address",
          "name": "account",
          "type": "address"
        },
        {
          "internalType": "uint256",
          "name": "blockNumber",
          "type": "uint256"
        }
      ],
      "name": "getPastVotes",
      "outputs": [
        {
          "internalType": "uint256",
          "name": "",
          "type": "uint256"
        }
      ],
      "stateMutability": "view",
      "type": "function"
    },
    {
      "inputs": [
        {
          "internalType": "address",
          "name": "account",
          "type": "address"
        }
      ],
      "name": "getVotes",
      "outputs": [
        {
          "internalType": "uint256",
          "name": "",
          "type": "uint256"
        }
      ],
      "stateMutability": "view",
      "type": "function"
    },
    {
      "inputs": [
        {
          "internalType": "address",
          "name": "spender",
          "type": "address"
        },
        {
          "internalType": "uint256",
          "name": "addedValue",
          "type": "uint256"
        }
      ],
      "name": "increaseAllowance",
      "outputs": [
        {
          "internalType": "bool",
          "name": "",
          "type": "bool"
        }
      ],
      "stateMutability": "nonpayable",
      "type": "function"
    },
    {
      "inputs": [
        {
          "internalType": "address",
          "name": "to",
          "type": "address"
        },
        {
          "internalType": "uint256",
          "name": "amount",
          "type": "uint256"
        }
      ],
      "name": "mint",
      "outputs": [],
      "stateMutability": "nonpayable",
      "type": "function"
    },
    {
      "inputs": [],
      "name": "name",
      "outputs": [
        {
          "internalType": "string",
          "name": "",
          "type": "string"
        }
      ],
      "stateMutability": "view",
      "type": "function"
    },
    {
      "inputs": [
        {
          "internalType": "address",
          "name": "owner",
          "type": "address"
        }
      ],
      "name": "nonces",
      "outputs": [
        {
          "internalType": "uint256",
          "name": "",
          "type": "uint256"
        }
      ],
      "stateMutability": "view",
      "type": "function"
    },
    {
      "inputs": [
        {
          "internalType": "address",
          "name": "account",
          "type": "address"
        }
      ],
      "name": "numCheckpoints",
      "outputs": [
        {
          "internalType": "uint32",
          "name": "",
          "type": "uint32"
        }
      ],
      "stateMutability": "view",
      "type": "function"
    },
    {
      "inputs": [
        {
          "internalType": "address",
          "name": "owner",
          "type": "address"
        },
        {
          "internalType": "address",
          "name": "spender",
          "type": "address"
        },
        {
          "internalType": "uint256",
          "name": "value",
          "type": "uint256"
        },
        {
          "internalType": "uint256",
          "name": "deadline",
          "type": "uint256"
        },
        {
          "internalType": "uint8",
          "name": "v",
          "type": "uint8"
        },
        {
          "internalType": "bytes32",
          "name": "r",
          "type": "bytes32"
        },
        {
          "internalType": "bytes32",
          "name": "s",
          "type": "bytes32"
        }
      ],
      "name": "permit",
      "outputs": [],
      "stateMutability": "nonpayable",
      "type": "function"
    },
    {
      "inputs": [],
      "name": "symbol",
      "outputs": [
        {
          "internalType": "string",
          "name": "",
          "type": "string"
        }
      ],
      "stateMutability": "view",
      "type": "function"
    },
    {
      "inputs": [],
      "name": "totalSupply",
      "outputs": [
        {
          "internalType": "uint256",
          "name": "",
          "type": "uint256"
        }
      ],
      "stateMutability": "view",
      "type": "function"
    },
    {
      "inputs": [
        {
          "internalType": "address",
          "name": "to",
          "type": "address"
        },
        {
          "internalType": "uint256",
          "name": "amount",
          "type": "uint256"
        }
      ],
      "name": "transfer",
      "outputs": [
        {
          "internalType": "bool",
          "name": "",
          "type": "bool"
        }
      ],
      "stateMutability": "nonpayable",
      "type": "function"
    },
    {
      "inputs": [
        {
          "internalType": "address",
          "name": "from",
          "type": "address"
        },
        {
          "internalType": "address",
          "name": "to",
          "type": "address"
        },
        {
          "internalType": "uint256",
          "name": "amount",
          "type": "uint256"
        }
      ],
      "name": "transferFrom",
      "outputs": [
        {
          "internalType": "bool",
          "name": "",
          "type": "bool"
        }
      ],
      "stateMutability": "nonpayable",
      "type": "function"
    }
  ],
  "bytecode": "0x6101406040523480156200001257600080fd5b5060405162004d3938038062004d39833981810160405281019062000038919062000c81565b6040518060400160405280600781526020017f4d79546f6b656e00000000000000000000000000000000000000000000000000815250806040518060400160405280600181526020017f31000000000000000000000000000000000000000000000000000000000000008152506040518060400160405280600781526020017f4d79546f6b656e000000000000000000000000000000000000000000000000008152506040518060400160405280600381526020017f4d544b0000000000000000000000000000000000000000000000000000000000815250816003908162000122919062000f2d565b50806004908162000134919062000f2d565b50505060008280519060200120905060008280519060200120905060007f8b73c3c69bb8fe3d512ecc4cf759cc79239f7b179b0ffacaa9a75d522b39400f90508260e081815250508161010081815250504660a08181525050620001a08184846200024e60201b60201c565b608081815250503073ffffffffffffffffffffffffffffffffffffffff1660c08173ffffffffffffffffffffffffffffffffffffffff168152505080610120818152505050505050505080600a60006101000a81548173ffffffffffffffffffffffffffffffffffffffff021916908373ffffffffffffffffffffffffffffffffffffffff160217905550620002473369021e19e0c9bab24000006200028a60201b60201c565b50620013e8565b600083838346306040516020016200026b95949392919062001051565b6040516020818303038152906040528051906020012090509392505050565b620002a18282620002a560201b62000f0a1760201c565b5050565b620002bc82826200036360201b62000f971760201c565b620002cc620004d060201b60201c565b7bffffffffffffffffffffffffffffffffffffffffffffffffffffffff16620002fa620004f460201b60201c565b11156200033e576040517f08c379a0000000000000000000000000000000000000000000000000000000008152600401620003359062001135565b60405180910390fd5b6200035d6009620004fe60201b620010ed17836200051660201b60201c565b50505050565b600073ffffffffffffffffffffffffffffffffffffffff168273ffffffffffffffffffffffffffffffffffffffff1603620003d5576040517f08c379a0000000000000000000000000000000000000000000000000000000008152600401620003cc90620011a7565b60405180910390fd5b620003e9600083836200082360201b60201c565b8060026000828254620003fd9190620011f8565b92505081905550806000808473ffffffffffffffffffffffffffffffffffffffff1673ffffffffffffffffffffffffffffffffffffffff168152602001908152602001600020600082825401925050819055508173ffffffffffffffffffffffffffffffffffffffff16600073ffffffffffffffffffffffffffffffffffffffff167fddf252ad1be2c89b69c2b068fc378daa952ba7f163c4a11628f55a4df523b3ef83604051620004b0919062001233565b60405180910390a3620004cc600083836200082860201b60201c565b5050565b60007bffffffffffffffffffffffffffffffffffffffffffffffffffffffff905090565b6000600254905090565b600081836200050e9190620011f8565b905092915050565b6000806000858054905090506000808214620005f1576200054c8760018462000540919062001250565b6200084560201b60201c565b6040518060400160405290816000820160009054906101000a900463ffffffff1663ffffffff1663ffffffff1681526020016000820160049054906101000a90047bffffffffffffffffffffffffffffffffffffffffffffffffffffffff167bffffffffffffffffffffffffffffffffffffffffffffffffffffffff167bffffffffffffffffffffffffffffffffffffffffffffffffffffffff16815250506200062d565b6040518060400160405280600063ffffffff16815260200160007bffffffffffffffffffffffffffffffffffffffffffffffffffffffff168152505b905080602001517bffffffffffffffffffffffffffffffffffffffffffffffffffffffff1693506200066084868860201c565b92506000821180156200067c575043816000015163ffffffff16145b156200070f5762000698836200085a60201b620011031760201c565b620006b888600185620006ac919062001250565b6200084560201b60201c565b60000160046101000a8154817bffffffffffffffffffffffffffffffffffffffffffffffffffffffff02191690837bffffffffffffffffffffffffffffffffffffffffffffffffffffffff16021790555062000819565b8660405180604001604052806200073143620008c860201b6200116e1760201c565b63ffffffff16815260200162000752866200085a60201b620011031760201c565b7bffffffffffffffffffffffffffffffffffffffffffffffffffffffff168152509080600181540180825580915050600190039060005260206000200160009091909190915060008201518160000160006101000a81548163ffffffff021916908363ffffffff16021790555060208201518160000160046101000a8154817bffffffffffffffffffffffffffffffffffffffffffffffffffffffff02191690837bffffffffffffffffffffffffffffffffffffffffffffffffffffffff16021790555050505b5050935093915050565b505050565b620008408383836200091e60201b620011c11760201c565b505050565b60008260005281602060002001905092915050565b60007bffffffffffffffffffffffffffffffffffffffffffffffffffffffff8016821115620008c0576040517f08c379a0000000000000000000000000000000000000000000000000000000008152600401620008b79062001301565b60405180910390fd5b819050919050565b600063ffffffff801682111562000916576040517f08c379a00000000000000000000000000000000000000000000000000000000081526004016200090d9062001399565b60405180910390fd5b819050919050565b620009368383836200096e60201b620011ec1760201c565b620009696200094b846200097360201b60201c565b6200095c846200097360201b60201c565b83620009dc60201b60201c565b505050565b505050565b6000600760008373ffffffffffffffffffffffffffffffffffffffff1673ffffffffffffffffffffffffffffffffffffffff16815260200190815260200160002060009054906101000a900473ffffffffffffffffffffffffffffffffffffffff169050919050565b8173ffffffffffffffffffffffffffffffffffffffff168373ffffffffffffffffffffffffffffffffffffffff161415801562000a195750600081115b1562000bfa57600073ffffffffffffffffffffffffffffffffffffffff168373ffffffffffffffffffffffffffffffffffffffff161462000b0c5760008062000ab3600860008773ffffffffffffffffffffffffffffffffffffffff1673ffffffffffffffffffffffffffffffffffffffff16815260200190815260200160002062000bff60201b620011f117856200051660201b60201c565b915091508473ffffffffffffffffffffffffffffffffffffffff167fdec2bacdd2f05b59de34da9b523dff8be42e5e38e818c82fdb0bae774387a724838360405162000b01929190620013bb565b60405180910390a250505b600073ffffffffffffffffffffffffffffffffffffffff168273ffffffffffffffffffffffffffffffffffffffff161462000bf95760008062000ba0600860008673ffffffffffffffffffffffffffffffffffffffff1673ffffffffffffffffffffffffffffffffffffffff168152602001908152602001600020620004fe60201b620010ed17856200051660201b60201c565b915091508373ffffffffffffffffffffffffffffffffffffffff167fdec2bacdd2f05b59de34da9b523dff8be42e5e38e818c82fdb0bae774387a724838360405162000bee929190620013bb565b60405180910390a250505b5b505050565b6000818362000c0f919062001250565b905092915050565b600080fd5b600073ffffffffffffffffffffffffffffffffffffffff82169050919050565b600062000c498262000c1c565b9050919050565b62000c5b8162000c3c565b811462000c6757600080fd5b50565b60008151905062000c7b8162000c50565b92915050565b60006020828403121562000c9a5762000c9962000c17565b5b600062000caa8482850162000c6a565b91505092915050565b600081519050919050565b7f4e487b7100000000000000000000000000000000000000000000000000000000600052604160045260246000fd5b7f4e487b7100000000000000000000000000000000000000000000000000000000600052602260045260246000fd5b6000600282049050600182168062000d3557607f821691505b60208210810362000d4b5762000d4a62000ced565b5b50919050565b60008190508160005260206000209050919050565b60006020601f8301049050919050565b600082821b905092915050565b60006008830262000db57fffffffffffffffffffffffffffffffffffffffffffffffffffffffffffffffff8262000d76565b62000dc1868362000d76565b95508019841693508086168417925050509392505050565b6000819050919050565b6000819050919050565b600062000e0e62000e0862000e028462000dd9565b62000de3565b62000dd9565b9050919050565b6000819050919050565b62000e2a8362000ded565b62000e4262000e398262000e15565b84845462000d83565b825550505050565b600090565b62000e5962000e4a565b62000e6681848462000e1f565b505050565b5b8181101562000e8e5762000e8260008262000e4f565b60018101905062000e6c565b5050565b601f82111562000edd5762000ea78162000d51565b62000eb28462000d66565b8101602085101562000ec2578190505b62000eda62000ed18562000d66565b83018262000e6b565b50505b505050565b600082821c905092915050565b600062000f026000198460080262000ee2565b1980831691505092915050565b600062000f1d838362000eef565b9150826002028217905092915050565b62000f388262000cb3565b67ffffffffffffffff81111562000f545762000f5362000cbe565b5b62000f60825462000d1c565b62000f6d82828562000e92565b600060209050601f83116001811462000fa5576000841562000f90578287015190505b62000f9c858262000f0f565b8655506200100c565b601f19841662000fb58662000d51565b60005b8281101562000fdf5784890151825560018201915060208501945060208101905062000fb8565b8683101562000fff578489015162000ffb601f89168262000eef565b8355505b6001600288020188555050505b505050505050565b6000819050919050565b620010298162001014565b82525050565b6200103a8162000dd9565b82525050565b6200104b8162000c3c565b82525050565b600060a0820190506200106860008301886200101e565b6200107760208301876200101e565b6200108660408301866200101e565b6200109560608301856200102f565b620010a4608083018462001040565b9695505050505050565b600082825260208201905092915050565b7f4552433230566f7465733a20746f74616c20737570706c79207269736b73206f60008201527f766572666c6f77696e6720766f74657300000000000000000000000000000000602082015250565b60006200111d603083620010ae565b91506200112a82620010bf565b604082019050919050565b6000602082019050818103600083015262001150816200110e565b9050919050565b7f45524332303a206d696e7420746f20746865207a65726f206164647265737300600082015250565b60006200118f601f83620010ae565b91506200119c8262001157565b602082019050919050565b60006020820190508181036000830152620011c28162001180565b9050919050565b7f4e487b7100000000000000000000000000000000000000000000000000000000600052601160045260246000fd5b6000620012058262000dd9565b9150620012128362000dd9565b92508282019050808211156200122d576200122c620011c9565b5b92915050565b60006020820190506200124a60008301846200102f565b92915050565b60006200125d8262000dd9565b91506200126a8362000dd9565b9250828203905081811115620012855762001284620011c9565b5b92915050565b7f53616665436173743a2076616c756520646f65736e27742066697420696e203260008201527f3234206269747300000000000000000000000000000000000000000000000000602082015250565b6000620012e9602783620010ae565b9150620012f6826200128b565b604082019050919050565b600060208201905081810360008301526200131c81620012da565b9050919050565b7f53616665436173743a2076616c756520646f65736e27742066697420696e203360008201527f3220626974730000000000000000000000000000000000000000000000000000602082015250565b600062001381602683620010ae565b91506200138e8262001323565b604082019050919050565b60006020820190508181036000830152620013b48162001372565b9050919050565b6000604082019050620013d260008301856200102f565b620013e160208301846200102f565b9392505050565b60805160a05160c05160e0516101005161012051613901620014386000396000611788015260006117ca015260006117a9015260006116de015260006117340152600061175d01526139016000f3fe608060405234801561001057600080fd5b506004361061014d5760003560e01c80636fcfff45116100c3578063a457c2d71161007c578063a457c2d714610400578063a9059cbb14610430578063c3cda52014610460578063d505accf1461047c578063dd62ed3e14610498578063f1127ed8146104c85761014d565b80636fcfff45146102f257806370a08231146103225780637ecebe00146103525780638e539e8c1461038257806395d89b41146103b25780639ab24eb0146103d05761014d565b80633644e515116101155780633644e5151461020c578063395093511461022a5780633a46b1a81461025a57806340c10f191461028a578063587cde1e146102a65780635c19a95c146102d65761014d565b806306fdde0314610152578063095ea7b31461017057806318160ddd146101a057806323b872dd146101be578063313ce567146101ee575b600080fd5b61015a6104f8565b60405161016791906125e6565b60405180910390f35b61018a600480360381019061018591906126a1565b61058a565b60405161019791906126fc565b60405180910390f35b6101a86105ad565b6040516101b59190612726565b60405180910390f35b6101d860048036038101906101d39190612741565b6105b7565b6040516101e591906126fc565b60405180910390f35b6101f66105e6565b60405161020391906127b0565b60405180910390f35b6102146105ef565b60405161022191906127e4565b60405180910390f35b610244600480360381019061023f91906126a1565b6105fe565b60405161025191906126fc565b60405180910390f35b610274600480360381019061026f91906126a1565b610635565b6040516102819190612726565b60405180910390f35b6102a4600480360381019061029f91906126a1565b6106c9565b005b6102c060048036038101906102bb91906127ff565b610731565b6040516102cd919061283b565b60405180910390f35b6102f060048036038101906102eb91906127ff565b61079a565b005b61030c600480360381019061030791906127ff565b6107ae565b6040516103199190612875565b60405180910390f35b61033c600480360381019061033791906127ff565b610802565b6040516103499190612726565b60405180910390f35b61036c600480360381019061036791906127ff565b61084a565b6040516103799190612726565b60405180910390f35b61039c60048036038101906103979190612890565b61089a565b6040516103a99190612726565b60405180910390f35b6103ba6108f0565b6040516103c791906125e6565b60405180910390f35b6103ea60048036038101906103e591906127ff565b610982565b6040516103f79190612726565b60405180910390f35b61041a600480360381019061041591906126a1565b610a93565b60405161042791906126fc565b60405180910390f35b61044a600480360381019061044591906126a1565b610b0a565b60405161045791906126fc565b60405180910390f35b61047a60048036038101906104759190612915565b610b2d565b005b610496600480360381019061049191906129a2565b610c31565b005b6104b260048036038101906104ad9190612a44565b610d73565b6040516104bf9190612726565b60405180910390f35b6104e260048036038101906104dd9190612ab0565b610dfa565b6040516104ef9190612b65565b60405180910390f35b60606003805461050790612baf565b80601f016020809104026020016040519081016040528092919081815260200182805461053390612baf565b80156105805780601f1061055557610100808354040283529160200191610580565b820191906000526020600020905b81548152906001019060200180831161056357829003601f168201915b5050505050905090565b600080610595611207565b90506105a281858561120f565b600191505092915050565b6000600254905090565b6000806105c2611207565b90506105cf8582856113d8565b6105da858585611464565b60019150509392505050565b60006012905090565b60006105f96116da565b905090565b600080610609611207565b905061062a81858561061b8589610d73565b6106259190612c0f565b61120f565b600191505092915050565b6000438210610679576040517f08c379a000000000000000000000000000000000000000000000000000000000815260040161067090612c8f565b60405180910390fd5b6106c1600860008573ffffffffffffffffffffffffffffffffffffffff1673ffffffffffffffffffffffffffffffffffffffff168152602001908152602001600020836117f4565b905092915050565b3373ffffffffffffffffffffffffffffffffffffffff16600a60009054906101000a900473ffffffffffffffffffffffffffffffffffffffff1673ffffffffffffffffffffffffffffffffffffffff161461072357600080fd5b61072d8282611945565b5050565b6000600760008373ffffffffffffffffffffffffffffffffffffffff1673ffffffffffffffffffffffffffffffffffffffff16815260200190815260200160002060009054906101000a900473ffffffffffffffffffffffffffffffffffffffff169050919050565b6107ab6107a5611207565b82611953565b50565b60006107fb600860008473ffffffffffffffffffffffffffffffffffffffff1673ffffffffffffffffffffffffffffffffffffffff1681526020019081526020016000208054905061116e565b9050919050565b60008060008373ffffffffffffffffffffffffffffffffffffffff1673ffffffffffffffffffffffffffffffffffffffff168152602001908152602001600020549050919050565b6000610893600560008473ffffffffffffffffffffffffffffffffffffffff1673ffffffffffffffffffffffffffffffffffffffff168152602001908152602001600020611a6d565b9050919050565b60004382106108de576040517f08c379a00000000000000000000000000000000000000000000000000000000081526004016108d590612c8f565b60405180910390fd5b6108e96009836117f4565b9050919050565b6060600480546108ff90612baf565b80601f016020809104026020016040519081016040528092919081815260200182805461092b90612baf565b80156109785780601f1061094d57610100808354040283529160200191610978565b820191906000526020600020905b81548152906001019060200180831161095b57829003601f168201915b5050505050905090565b600080600860008473ffffffffffffffffffffffffffffffffffffffff1673ffffffffffffffffffffffffffffffffffffffff16815260200190815260200160002080549050905060008114610a6a57600860008473ffffffffffffffffffffffffffffffffffffffff1673ffffffffffffffffffffffffffffffffffffffff168152602001908152602001600020600182610a1e9190612caf565b81548110610a2f57610a2e612ce3565b5b9060005260206000200160000160049054906101000a90047bffffffffffffffffffffffffffffffffffffffffffffffffffffffff16610a6d565b60005b7bffffffffffffffffffffffffffffffffffffffffffffffffffffffff16915050919050565b600080610a9e611207565b90506000610aac8286610d73565b905083811015610af1576040517f08c379a0000000000000000000000000000000000000000000000000000000008152600401610ae890612d84565b60405180910390fd5b610afe828686840361120f565b60019250505092915050565b600080610b15611207565b9050610b22818585611464565b600191505092915050565b83421115610b70576040517f08c379a0000000000000000000000000000000000000000000000000000000008152600401610b6790612df0565b60405180910390fd5b6000610bd2610bca7fe48329057bfd03d55e49b547132e39cffd9c1820ad7b9d4c5307691425d15adf898989604051602001610baf9493929190612e10565b60405160208183030381529060405280519060200120611a7b565b858585611a95565b9050610bdd81611ac0565b8614610c1e576040517f08c379a0000000000000000000000000000000000000000000000000000000008152600401610c1590612ea1565b60405180910390fd5b610c288188611953565b50505050505050565b83421115610c74576040517f08c379a0000000000000000000000000000000000000000000000000000000008152600401610c6b90612f0d565b60405180910390fd5b60007f6e71edae12b1b97f4d1f60370fef10105fa2faae0126114a169c64845d6126c9888888610ca38c611ac0565b89604051602001610cb996959493929190612f2d565b6040516020818303038152906040528051906020012090506000610cdc82611a7b565b90506000610cec82878787611a95565b90508973ffffffffffffffffffffffffffffffffffffffff168173ffffffffffffffffffffffffffffffffffffffff1614610d5c576040517f08c379a0000000000000000000000000000000000000000000000000000000008152600401610d5390612fda565b60405180910390fd5b610d678a8a8a61120f565b50505050505050505050565b6000600160008473ffffffffffffffffffffffffffffffffffffffff1673ffffffffffffffffffffffffffffffffffffffff16815260200190815260200160002060008373ffffffffffffffffffffffffffffffffffffffff1673ffffffffffffffffffffffffffffffffffffffff16815260200190815260200160002054905092915050565b610e02612518565b600860008473ffffffffffffffffffffffffffffffffffffffff1673ffffffffffffffffffffffffffffffffffffffff1681526020019081526020016000208263ffffffff1681548110610e5957610e58612ce3565b5b906000526020600020016040518060400160405290816000820160009054906101000a900463ffffffff1663ffffffff1663ffffffff1681526020016000820160049054906101000a90047bffffffffffffffffffffffffffffffffffffffffffffffffffffffff167bffffffffffffffffffffffffffffffffffffffffffffffffffffffff167bffffffffffffffffffffffffffffffffffffffffffffffffffffffff1681525050905092915050565b610f148282610f97565b610f1c611b1e565b7bffffffffffffffffffffffffffffffffffffffffffffffffffffffff16610f426105ad565b1115610f83576040517f08c379a0000000000000000000000000000000000000000000000000000000008152600401610f7a9061306c565b60405180910390fd5b610f9160096110ed83611b42565b50505050565b600073ffffffffffffffffffffffffffffffffffffffff168273ffffffffffffffffffffffffffffffffffffffff1603611006576040517f08c379a0000000000000000000000000000000000000000000000000000000008152600401610ffd906130d8565b60405180910390fd5b61101260008383611e11565b80600260008282546110249190612c0f565b92505081905550806000808473ffffffffffffffffffffffffffffffffffffffff1673ffffffffffffffffffffffffffffffffffffffff168152602001908152602001600020600082825401925050819055508173ffffffffffffffffffffffffffffffffffffffff16600073ffffffffffffffffffffffffffffffffffffffff167fddf252ad1be2c89b69c2b068fc378daa952ba7f163c4a11628f55a4df523b3ef836040516110d59190612726565b60405180910390a36110e960008383611e16565b5050565b600081836110fb9190612c0f565b905092915050565b60007bffffffffffffffffffffffffffffffffffffffffffffffffffffffff8016821115611166576040517f08c379a000000000000000000000000000000000000000000000000000000000815260040161115d9061316a565b60405180910390fd5b819050919050565b600063ffffffff80168211156111b9576040517f08c379a00000000000000000000000000000000000000000000000000000000081526004016111b0906131fc565b60405180910390fd5b819050919050565b6111cc8383836111ec565b6111e76111d884610731565b6111e184610731565b83611e26565b505050565b505050565b600081836111ff9190612caf565b905092915050565b600033905090565b600073ffffffffffffffffffffffffffffffffffffffff168373ffffffffffffffffffffffffffffffffffffffff160361127e576040517f08c379a00000000000000000000000000000000000000000000000000000000081526004016112759061328e565b60405180910390fd5b600073ffffffffffffffffffffffffffffffffffffffff168273ffffffffffffffffffffffffffffffffffffffff16036112ed576040517f08c379a00000000000000000000000000000000000000000000000000000000081526004016112e490613320565b60405180910390fd5b80600160008573ffffffffffffffffffffffffffffffffffffffff1673ffffffffffffffffffffffffffffffffffffffff16815260200190815260200160002060008473ffffffffffffffffffffffffffffffffffffffff1673ffffffffffffffffffffffffffffffffffffffff168152602001908152602001600020819055508173ffffffffffffffffffffffffffffffffffffffff168373ffffffffffffffffffffffffffffffffffffffff167f8c5be1e5ebec7d5bd14f71427d1e84f3dd0314c0f7b2291e5b200ac8c7c3b925836040516113cb9190612726565b60405180910390a3505050565b60006113e48484610d73565b90507fffffffffffffffffffffffffffffffffffffffffffffffffffffffffffffffff811461145e5781811015611450576040517f08c379a00000000000000000000000000000000000000000000000000000000081526004016114479061338c565b60405180910390fd5b61145d848484840361120f565b5b50505050565b600073ffffffffffffffffffffffffffffffffffffffff168373ffffffffffffffffffffffffffffffffffffffff16036114d3576040517f08c379a00000000000000000000000000000000000000000000000000000000081526004016114ca9061341e565b60405180910390fd5b600073ffffffffffffffffffffffffffffffffffffffff168273ffffffffffffffffffffffffffffffffffffffff1603611542576040517f08c379a0000000000000000000000000000000000000000000000000000000008152600401611539906134b0565b60405180910390fd5b61154d838383611e11565b60008060008573ffffffffffffffffffffffffffffffffffffffff1673ffffffffffffffffffffffffffffffffffffffff168152602001908152602001600020549050818110156115d3576040517f08c379a00000000000000000000000000000000000000000000000000000000081526004016115ca90613542565b60405180910390fd5b8181036000808673ffffffffffffffffffffffffffffffffffffffff1673ffffffffffffffffffffffffffffffffffffffff16815260200190815260200160002081905550816000808573ffffffffffffffffffffffffffffffffffffffff1673ffffffffffffffffffffffffffffffffffffffff168152602001908152602001600020600082825401925050819055508273ffffffffffffffffffffffffffffffffffffffff168473ffffffffffffffffffffffffffffffffffffffff167fddf252ad1be2c89b69c2b068fc378daa952ba7f163c4a11628f55a4df523b3ef846040516116c19190612726565b60405180910390a36116d4848484611e16565b50505050565b60007f000000000000000000000000000000000000000000000000000000000000000073ffffffffffffffffffffffffffffffffffffffff163073ffffffffffffffffffffffffffffffffffffffff1614801561175657507f000000000000000000000000000000000000000000000000000000000000000046145b15611783577f000000000000000000000000000000000000000000000000000000000000000090506117f1565b6117ee7f00000000000000000000000000000000000000000000000000000000000000007f00000000000000000000000000000000000000000000000000000000000000007f000000000000000000000000000000000000000000000000000000000000000061201f565b90505b90565b60008083805490509050600080829050600583111561186a57600061181884612059565b846118239190612caf565b9050856118308883612152565b60000160009054906101000a900463ffffffff1663ffffffff16111561185857809150611868565b6001816118659190612c0f565b92505b505b5b808210156118ca57600061187f8383612167565b90508561188c8883612152565b60000160009054906101000a900463ffffffff1663ffffffff1611156118b4578091506118c4565b6001816118c19190612c0f565b92505b5061186b565b60008114611919576118e8866001836118e39190612caf565b612152565b60000160049054906101000a90047bffffffffffffffffffffffffffffffffffffffffffffffffffffffff1661191c565b60005b7bffffffffffffffffffffffffffffffffffffffffffffffffffffffff16935050505092915050565b61194f8282610f0a565b5050565b600061195e83610731565b9050600061196b84610802565b905082600760008673ffffffffffffffffffffffffffffffffffffffff1673ffffffffffffffffffffffffffffffffffffffff16815260200190815260200160002060006101000a81548173ffffffffffffffffffffffffffffffffffffffff021916908373ffffffffffffffffffffffffffffffffffffffff1602179055508273ffffffffffffffffffffffffffffffffffffffff168273ffffffffffffffffffffffffffffffffffffffff168573ffffffffffffffffffffffffffffffffffffffff167f3134e8a2e6d97e929a7e54011ea5485d7d196dd5f0ba4d4ef95803e8e3fc257f60405160405180910390a4611a67828483611e26565b50505050565b600081600001549050919050565b6000611a8e611a886116da565b8361218d565b9050919050565b6000806000611aa6878787876121c0565b91509150611ab3816122a2565b8192505050949350505050565b600080600560008473ffffffffffffffffffffffffffffffffffffffff1673ffffffffffffffffffffffffffffffffffffffff1681526020019081526020016000209050611b0d81611a6d565b9150611b1881612408565b50919050565b60007bffffffffffffffffffffffffffffffffffffffffffffffffffffffff905090565b6000806000858054905090506000808214611c1157611b6d87600184611b689190612caf565b612152565b6040518060400160405290816000820160009054906101000a900463ffffffff1663ffffffff1663ffffffff1681526020016000820160049054906101000a90047bffffffffffffffffffffffffffffffffffffffffffffffffffffffff167bffffffffffffffffffffffffffffffffffffffffffffffffffffffff167bffffffffffffffffffffffffffffffffffffffffffffffffffffffff1681525050611c4d565b6040518060400160405280600063ffffffff16815260200160007bffffffffffffffffffffffffffffffffffffffffffffffffffffffff168152505b905080602001517bffffffffffffffffffffffffffffffffffffffffffffffffffffffff169350611c8284868863ffffffff16565b9250600082118015611c9d575043816000015163ffffffff16145b15611d1757611cab83611103565b611cc188600185611cbc9190612caf565b612152565b60000160046101000a8154817bffffffffffffffffffffffffffffffffffffffffffffffffffffffff02191690837bffffffffffffffffffffffffffffffffffffffffffffffffffffffff160217905550611e07565b866040518060400160405280611d2c4361116e565b63ffffffff168152602001611d4086611103565b7bffffffffffffffffffffffffffffffffffffffffffffffffffffffff168152509080600181540180825580915050600190039060005260206000200160009091909190915060008201518160000160006101000a81548163ffffffff021916908363ffffffff16021790555060208201518160000160046101000a8154817bffffffffffffffffffffffffffffffffffffffffffffffffffffffff02191690837bffffffffffffffffffffffffffffffffffffffffffffffffffffffff16021790555050505b5050935093915050565b505050565b611e218383836111c1565b505050565b8173ffffffffffffffffffffffffffffffffffffffff168373ffffffffffffffffffffffffffffffffffffffff1614158015611e625750600081115b1561201a57600073ffffffffffffffffffffffffffffffffffffffff168373ffffffffffffffffffffffffffffffffffffffff1614611f4057600080611ee9600860008773ffffffffffffffffffffffffffffffffffffffff1673ffffffffffffffffffffffffffffffffffffffff1681526020019081526020016000206111f185611b42565b915091508473ffffffffffffffffffffffffffffffffffffffff167fdec2bacdd2f05b59de34da9b523dff8be42e5e38e818c82fdb0bae774387a7248383604051611f35929190613562565b60405180910390a250505b600073ffffffffffffffffffffffffffffffffffffffff168273ffffffffffffffffffffffffffffffffffffffff161461201957600080611fc2600860008673ffffffffffffffffffffffffffffffffffffffff1673ffffffffffffffffffffffffffffffffffffffff1681526020019081526020016000206110ed85611b42565b915091508373ffffffffffffffffffffffffffffffffffffffff167fdec2bacdd2f05b59de34da9b523dff8be42e5e38e818c82fdb0bae774387a724838360405161200e929190613562565b60405180910390a250505b5b505050565b6000838383463060405160200161203a95949392919061358b565b6040516020818303038152906040528051906020012090509392505050565b600080820361206b576000905061214d565b600060016120788461241e565b901c6001901b90506001818481612092576120916135de565b5b048201901c905060018184816120ab576120aa6135de565b5b048201901c905060018184816120c4576120c36135de565b5b048201901c905060018184816120dd576120dc6135de565b5b048201901c905060018184816120f6576120f56135de565b5b048201901c9050600181848161210f5761210e6135de565b5b048201901c90506001818481612128576121276135de565b5b048201901c905061214981828581612143576121426135de565b5b046124ff565b9150505b919050565b60008260005281602060002001905092915050565b60006002828418612178919061360d565b8284166121859190612c0f565b905092915050565b600082826040516020016121a29291906136b6565b60405160208183030381529060405280519060200120905092915050565b6000807f7fffffffffffffffffffffffffffffff5d576e7357a4501ddfe92f46681b20a08360001c11156121fb576000600391509150612299565b60006001878787876040516000815260200160405260405161222094939291906136ed565b6020604051602081039080840390855afa158015612242573d6000803e3d6000fd5b505050602060405103519050600073ffffffffffffffffffffffffffffffffffffffff168173ffffffffffffffffffffffffffffffffffffffff160361229057600060019250925050612299565b80600092509250505b94509492505050565b600060048111156122b6576122b5613732565b5b8160048111156122c9576122c8613732565b5b031561240557600160048111156122e3576122e2613732565b5b8160048111156122f6576122f5613732565b5b03612336576040517f08c379a000000000000000000000000000000000000000000000000000000000815260040161232d906137ad565b60405180910390fd5b6002600481111561234a57612349613732565b5b81600481111561235d5761235c613732565b5b0361239d576040517f08c379a000000000000000000000000000000000000000000000000000000000815260040161239490613819565b60405180910390fd5b600360048111156123b1576123b0613732565b5b8160048111156123c4576123c3613732565b5b03612404576040517f08c379a00000000000000000000000000000000000000000000000000000000081526004016123fb906138ab565b60405180910390fd5b5b50565b6001816000016000828254019250508190555050565b600080600090506000608084901c111561244057608083901c92506080810190505b6000604084901c111561245b57604083901c92506040810190505b6000602084901c111561247657602083901c92506020810190505b6000601084901c111561249157601083901c92506010810190505b6000600884901c11156124ac57600883901c92506008810190505b6000600484901c11156124c757600483901c92506004810190505b6000600284901c11156124e257600283901c92506002810190505b6000600184901c11156124f6576001810190505b80915050919050565b600081831061250e5781612510565b825b905092915050565b6040518060400160405280600063ffffffff16815260200160007bffffffffffffffffffffffffffffffffffffffffffffffffffffffff1681525090565b600081519050919050565b600082825260208201905092915050565b60005b83811015612590578082015181840152602081019050612575565b60008484015250505050565b6000601f19601f8301169050919050565b60006125b882612556565b6125c28185612561565b93506125d2818560208601612572565b6125db8161259c565b840191505092915050565b6000602082019050818103600083015261260081846125ad565b905092915050565b600080fd5b600073ffffffffffffffffffffffffffffffffffffffff82169050919050565b60006126388261260d565b9050919050565b6126488161262d565b811461265357600080fd5b50565b6000813590506126658161263f565b92915050565b6000819050919050565b61267e8161266b565b811461268957600080fd5b50565b60008135905061269b81612675565b92915050565b600080604083850312156126b8576126b7612608565b5b60006126c685828601612656565b92505060206126d78582860161268c565b9150509250929050565b60008115159050919050565b6126f6816126e1565b82525050565b600060208201905061271160008301846126ed565b92915050565b6127208161266b565b82525050565b600060208201905061273b6000830184612717565b92915050565b60008060006060848603121561275a57612759612608565b5b600061276886828701612656565b935050602061277986828701612656565b925050604061278a8682870161268c565b9150509250925092565b600060ff82169050919050565b6127aa81612794565b82525050565b60006020820190506127c560008301846127a1565b92915050565b6000819050919050565b6127de816127cb565b82525050565b60006020820190506127f960008301846127d5565b92915050565b60006020828403121561281557612814612608565b5b600061282384828501612656565b91505092915050565b6128358161262d565b82525050565b6000602082019050612850600083018461282c565b92915050565b600063ffffffff82169050919050565b61286f81612856565b82525050565b600060208201905061288a6000830184612866565b92915050565b6000602082840312156128a6576128a5612608565b5b60006128b48482850161268c565b91505092915050565b6128c681612794565b81146128d157600080fd5b50565b6000813590506128e3816128bd565b92915050565b6128f2816127cb565b81146128fd57600080fd5b50565b60008135905061290f816128e9565b92915050565b60008060008060008060c0878903121561293257612931612608565b5b600061294089828a01612656565b965050602061295189828a0161268c565b955050604061296289828a0161268c565b945050606061297389828a016128d4565b935050608061298489828a01612900565b92505060a061299589828a01612900565b9150509295509295509295565b600080600080600080600060e0888a0312156129c1576129c0612608565b5b60006129cf8a828b01612656565b97505060206129e08a828b01612656565b96505060406129f18a828b0161268c565b9550506060612a028a828b0161268c565b9450506080612a138a828b016128d4565b93505060a0612a248a828b01612900565b92505060c0612a358a828b01612900565b91505092959891949750929550565b60008060408385031215612a5b57612a5a612608565b5b6000612a6985828601612656565b9250506020612a7a85828601612656565b9150509250929050565b612a8d81612856565b8114612a9857600080fd5b50565b600081359050612aaa81612a84565b92915050565b60008060408385031215612ac757612ac6612608565b5b6000612ad585828601612656565b9250506020612ae685828601612a9b565b9150509250929050565b612af981612856565b82525050565b60007bffffffffffffffffffffffffffffffffffffffffffffffffffffffff82169050919050565b612b3081612aff565b82525050565b604082016000820151612b4c6000850182612af0565b506020820151612b5f6020850182612b27565b50505050565b6000604082019050612b7a6000830184612b36565b92915050565b7f4e487b7100000000000000000000000000000000000000000000000000000000600052602260045260246000fd5b60006002820490506001821680612bc757607f821691505b602082108103612bda57612bd9612b80565b5b50919050565b7f4e487b7100000000000000000000000000000000000000000000000000000000600052601160045260246000fd5b6000612c1a8261266b565b9150612c258361266b565b9250828201905080821115612c3d57612c3c612be0565b5b92915050565b7f4552433230566f7465733a20626c6f636b206e6f7420796574206d696e656400600082015250565b6000612c79601f83612561565b9150612c8482612c43565b602082019050919050565b60006020820190508181036000830152612ca881612c6c565b9050919050565b6000612cba8261266b565b9150612cc58361266b565b9250828203905081811115612cdd57612cdc612be0565b5b92915050565b7f4e487b7100000000000000000000000000000000000000000000000000000000600052603260045260246000fd5b7f45524332303a2064656372656173656420616c6c6f77616e63652062656c6f7760008201527f207a65726f000000000000000000000000000000000000000000000000000000602082015250565b6000612d6e602583612561565b9150612d7982612d12565b604082019050919050565b60006020820190508181036000830152612d9d81612d61565b9050919050565b7f4552433230566f7465733a207369676e61747572652065787069726564000000600082015250565b6000612dda601d83612561565b9150612de582612da4565b602082019050919050565b60006020820190508181036000830152612e0981612dcd565b9050919050565b6000608082019050612e2560008301876127d5565b612e32602083018661282c565b612e3f6040830185612717565b612e4c6060830184612717565b95945050505050565b7f4552433230566f7465733a20696e76616c6964206e6f6e636500000000000000600082015250565b6000612e8b601983612561565b9150612e9682612e55565b602082019050919050565b60006020820190508181036000830152612eba81612e7e565b9050919050565b7f45524332305065726d69743a206578706972656420646561646c696e65000000600082015250565b6000612ef7601d83612561565b9150612f0282612ec1565b602082019050919050565b60006020820190508181036000830152612f2681612eea565b9050919050565b600060c082019050612f4260008301896127d5565b612f4f602083018861282c565b612f5c604083018761282c565b612f696060830186612717565b612f766080830185612717565b612f8360a0830184612717565b979650505050505050565b7f45524332305065726d69743a20696e76616c6964207369676e61747572650000600082015250565b6000612fc4601e83612561565b9150612fcf82612f8e565b602082019050919050565b60006020820190508181036000830152612ff381612fb7565b9050919050565b7f4552433230566f7465733a20746f74616c20737570706c79207269736b73206f60008201527f766572666c6f77696e6720766f74657300000000000000000000000000000000602082015250565b6000613056603083612561565b915061306182612ffa565b604082019050919050565b6000602082019050818103600083015261308581613049565b9050919050565b7f45524332303a206d696e7420746f20746865207a65726f206164647265737300600082015250565b60006130c2601f83612561565b91506130cd8261308c565b602082019050919050565b600060208201905081810360008301526130f1816130b5565b9050919050565b7f53616665436173743a2076616c756520646f65736e27742066697420696e203260008201527f3234206269747300000000000000000000000000000000000000000000000000602082015250565b6000613154602783612561565b915061315f826130f8565b604082019050919050565b6000602082019050818103600083015261318381613147565b9050919050565b7f53616665436173743a2076616c756520646f65736e27742066697420696e203360008201527f3220626974730000000000000000000000000000000000000000000000000000602082015250565b60006131e6602683612561565b91506131f18261318a565b604082019050919050565b60006020820190508181036000830152613215816131d9565b9050919050565b7f45524332303a20617070726f76652066726f6d20746865207a65726f2061646460008201527f7265737300000000000000000000000000000000000000000000000000000000602082015250565b6000613278602483612561565b91506132838261321c565b604082019050919050565b600060208201905081810360008301526132a78161326b565b9050919050565b7f45524332303a20617070726f766520746f20746865207a65726f20616464726560008201527f7373000000000000000000000000000000000000000000000000000000000000602082015250565b600061330a602283612561565b9150613315826132ae565b604082019050919050565b60006020820190508181036000830152613339816132fd565b9050919050565b7f45524332303a20696e73756666696369656e7420616c6c6f77616e6365000000600082015250565b6000613376601d83612561565b915061338182613340565b602082019050919050565b600060208201905081810360008301526133a581613369565b9050919050565b7f45524332303a207472616e736665722066726f6d20746865207a65726f20616460008201527f6472657373000000000000000000000000000000000000000000000000000000602082015250565b6000613408602583612561565b9150613413826133ac565b604082019050919050565b60006020820190508181036000830152613437816133fb565b9050919050565b7f45524332303a207472616e7366657220746f20746865207a65726f206164647260008201527f6573730000000000000000000000000000000000000000000000000000000000602082015250565b600061349a602383612561565b91506134a58261343e565b604082019050919050565b600060208201905081810360008301526134c98161348d565b9050919050565b7f45524332303a207472616e7366657220616d6f756e742065786365656473206260008201527f616c616e63650000000000000000000000000000000000000000000000000000602082015250565b600061352c602683612561565b9150613537826134d0565b604082019050919050565b6000602082019050818103600083015261355b8161351f565b9050919050565b60006040820190506135776000830185612717565b6135846020830184612717565b9392505050565b600060a0820190506135a060008301886127d5565b6135ad60208301876127d5565b6135ba60408301866127d5565b6135c76060830185612717565b6135d4608083018461282c565b9695505050505050565b7f4e487b7100000000000000000000000000000000000000000000000000000000600052601260045260246000fd5b60006136188261266b565b91506136238361266b565b925082613633576136326135de565b5b828204905092915050565b600081905092915050565b7f1901000000000000000000000000000000000000000000000000000000000000600082015250565b600061367f60028361363e565b915061368a82613649565b600282019050919050565b6000819050919050565b6136b06136ab826127cb565b613695565b82525050565b60006136c182613672565b91506136cd828561369f565b6020820191506136dd828461369f565b6020820191508190509392505050565b600060808201905061370260008301876127d5565b61370f60208301866127a1565b61371c60408301856127d5565b61372960608301846127d5565b95945050505050565b7f4e487b7100000000000000000000000000000000000000000000000000000000600052602160045260246000fd5b7f45434453413a20696e76616c6964207369676e61747572650000000000000000600082015250565b6000613797601883612561565b91506137a282613761565b602082019050919050565b600060208201905081810360008301526137c68161378a565b9050919050565b7f45434453413a20696e76616c6964207369676e6174757265206c656e67746800600082015250565b6000613803601f83612561565b915061380e826137cd565b602082019050919050565b60006020820190508181036000830152613832816137f6565b9050919050565b7f45434453413a20696e76616c6964207369676e6174757265202773272076616c60008201527f7565000000000000000000000000000000000000000000000000000000000000602082015250565b6000613895602283612561565b91506138a082613839565b604082019050919050565b600060208201905081810360008301526138c481613888565b905091905056fea2646970667358221220283e9b2463d55561b5c2f719a13ec82e199e2c60ba7912e380eb926ade6a049f64736f6c63430008110033",
  "linkReferences": {},
  "deployedLinkReferences": {}
}